{
	"data": {
		"bytecode": {
			"linkReferences": {},
			"object": "6060604052610102806100136000396000f30060606040526000357c0100000000000000000000000000000000000000000000000000000000900463ffffffff16806312065fe0146046578063b32fe94f14605857600080fd5b3415605057600080fd5b6056606e565b005b606c600480803590602001909190505060c6565b005b3373ffffffffffffffffffffffffffffffffffffffff166108fc3073ffffffffffffffffffffffffffffffffffffffff16319081150290604051600060405180830381858888f19350505050151560c457600080fd5b565b803414151560d357600080fd5b505600a165627a7a7230582002689c7b1ea95ef44a60b18db2f82af3614f6dffc8e1e6e1398d60c107915ef70029",
			"opcodes": "PUSH1 0x60 PUSH1 0x40 MSTORE PUSH2 0x102 DUP1 PUSH2 0x13 PUSH1 0x0 CODECOPY PUSH1 0x0 RETURN STOP PUSH1 0x60 PUSH1 0x40 MSTORE PUSH1 0x0 CALLDATALOAD PUSH29 0x100000000000000000000000000000000000000000000000000000000 SWAP1 DIV PUSH4 0xFFFFFFFF AND DUP1 PUSH4 0x12065FE0 EQ PUSH1 0x46 JUMPI DUP1 PUSH4 0xB32FE94F EQ PUSH1 0x58 JUMPI PUSH1 0x0 DUP1 REVERT JUMPDEST CALLVALUE ISZERO PUSH1 0x50 JUMPI PUSH1 0x0 DUP1 REVERT JUMPDEST PUSH1 0x56 PUSH1 0x6E JUMP JUMPDEST STOP JUMPDEST PUSH1 0x6C PUSH1 0x4 DUP1 DUP1 CALLDATALOAD SWAP1 PUSH1 0x20 ADD SWAP1 SWAP2 SWAP1 POP POP PUSH1 0xC6 JUMP JUMPDEST STOP JUMPDEST CALLER PUSH20 0xFFFFFFFFFFFFFFFFFFFFFFFFFFFFFFFFFFFFFFFF AND PUSH2 0x8FC ADDRESS PUSH20 0xFFFFFFFFFFFFFFFFFFFFFFFFFFFFFFFFFFFFFFFF AND BALANCE SWAP1 DUP2 ISZERO MUL SWAP1 PUSH1 0x40 MLOAD PUSH1 0x0 PUSH1 0x40 MLOAD DUP1 DUP4 SUB DUP2 DUP6 DUP9 DUP9 CALL SWAP4 POP POP POP POP ISZERO ISZERO PUSH1 0xC4 JUMPI PUSH1 0x0 DUP1 REVERT JUMPDEST JUMP JUMPDEST DUP1 CALLVALUE EQ ISZERO ISZERO PUSH1 0xD3 JUMPI PUSH1 0x0 DUP1 REVERT JUMPDEST POP JUMP STOP LOG1 PUSH6 0x627A7A723058 KECCAK256 MUL PUSH9 0x9C7B1EA95EF44A60B1 DUP14 0xb2 0xf8 0x2a RETURN PUSH2 0x4F6D SELFDESTRUCT 0xc8 0xe1 0xe6 0xe1 CODECOPY DUP14 PUSH1 0xC1 SMOD SWAP2 0x5e 0xf7 STOP 0x29 "
		},
		"gasEstimates": {
			"creation": {
				"codeDepositCost": "51600",
				"executionCost": "81",
				"totalCost": "51681"
			},
			"external": {
				"getBalance()": "infinite",
				"incrementBalance(uint256)": "174"
			}
		},
		"methodIdentifiers": {
			"getBalance()": "12065fe0",
			"incrementBalance(uint256)": "b32fe94f"
		}
	},
	"abi": [
		{
			"constant": false,
			"inputs": [],
			"name": "getBalance",
			"outputs": [],
			"payable": false,
			"stateMutability": "nonpayable",
			"type": "function"
		},
		{
			"constant": false,
			"inputs": [
				{
					"name": "amount",
					"type": "uint256"
				}
			],
			"name": "incrementBalance",
			"outputs": [],
			"payable": true,
			"stateMutability": "payable",
			"type": "function"
		},
		{
			"inputs": [],
			"payable": true,
			"stateMutability": "payable",
			"type": "constructor"
		}
	]
}