{
	"data": {
		"bytecode": {
			"linkReferences": {},
			"object": "6060604052341561000f57600080fd5b60405160208061013d833981016040528080519060200190919050506000546000819055505060fa806100436000396000f30060606040526000357c0100000000000000000000000000000000000000000000000000000000900463ffffffff168063a87d942c146050578063d14e62b8146076578063e5071b8e14609657600080fd5b3415605a57600080fd5b606060a8565b6040518082815260200191505060405180910390f35b3415608057600080fd5b6094600480803590602001909190505060b1565b005b341560a057600080fd5b60a660bb565b005b60008054905090565b8060008190555050565b60008081548092919060010191905055505600a165627a7a72305820c404494b1b89d27b80774601fc5b72917b05b667e132e16e42f22ca3d22c4cc00029",
			"opcodes": "PUSH1 0x60 PUSH1 0x40 MSTORE CALLVALUE ISZERO PUSH2 0xF JUMPI PUSH1 0x0 DUP1 REVERT JUMPDEST PUSH1 0x40 MLOAD PUSH1 0x20 DUP1 PUSH2 0x13D DUP4 CODECOPY DUP2 ADD PUSH1 0x40 MSTORE DUP1 DUP1 MLOAD SWAP1 PUSH1 0x20 ADD SWAP1 SWAP2 SWAP1 POP POP PUSH1 0x0 SLOAD PUSH1 0x0 DUP2 SWAP1 SSTORE POP POP PUSH1 0xFA DUP1 PUSH2 0x43 PUSH1 0x0 CODECOPY PUSH1 0x0 RETURN STOP PUSH1 0x60 PUSH1 0x40 MSTORE PUSH1 0x0 CALLDATALOAD PUSH29 0x100000000000000000000000000000000000000000000000000000000 SWAP1 DIV PUSH4 0xFFFFFFFF AND DUP1 PUSH4 0xA87D942C EQ PUSH1 0x50 JUMPI DUP1 PUSH4 0xD14E62B8 EQ PUSH1 0x76 JUMPI DUP1 PUSH4 0xE5071B8E EQ PUSH1 0x96 JUMPI PUSH1 0x0 DUP1 REVERT JUMPDEST CALLVALUE ISZERO PUSH1 0x5A JUMPI PUSH1 0x0 DUP1 REVERT JUMPDEST PUSH1 0x60 PUSH1 0xA8 JUMP JUMPDEST PUSH1 0x40 MLOAD DUP1 DUP3 DUP2 MSTORE PUSH1 0x20 ADD SWAP2 POP POP PUSH1 0x40 MLOAD DUP1 SWAP2 SUB SWAP1 RETURN JUMPDEST CALLVALUE ISZERO PUSH1 0x80 JUMPI PUSH1 0x0 DUP1 REVERT JUMPDEST PUSH1 0x94 PUSH1 0x4 DUP1 DUP1 CALLDATALOAD SWAP1 PUSH1 0x20 ADD SWAP1 SWAP2 SWAP1 POP POP PUSH1 0xB1 JUMP JUMPDEST STOP JUMPDEST CALLVALUE ISZERO PUSH1 0xA0 JUMPI PUSH1 0x0 DUP1 REVERT JUMPDEST PUSH1 0xA6 PUSH1 0xBB JUMP JUMPDEST STOP JUMPDEST PUSH1 0x0 DUP1 SLOAD SWAP1 POP SWAP1 JUMP JUMPDEST DUP1 PUSH1 0x0 DUP2 SWAP1 SSTORE POP POP JUMP JUMPDEST PUSH1 0x0 DUP1 DUP2 SLOAD DUP1 SWAP3 SWAP2 SWAP1 PUSH1 0x1 ADD SWAP2 SWAP1 POP SSTORE POP JUMP STOP LOG1 PUSH6 0x627A7A723058 KECCAK256 0xc4 DIV 0x49 0x4b 0x1b DUP10 0xd2 PUSH28 0x80774601FC5B72917B05B667E132E16E42F22CA3D22C4CC000290000 "
		},
		"gasEstimates": {
			"creation": {
				"codeDepositCost": "50000",
				"executionCost": "20377",
				"totalCost": "70377"
			},
			"external": {
				"getCount()": "373",
				"incrementCount()": "20388",
				"setCount(uint256)": "20179"
			}
		},
		"methodIdentifiers": {
			"getCount()": "a87d942c",
			"incrementCount()": "e5071b8e",
			"setCount(uint256)": "d14e62b8"
		}
	},
	"abi": [
		{
			"constant": true,
			"inputs": [],
			"name": "getCount",
			"outputs": [
				{
					"name": "",
					"type": "uint256"
				}
			],
			"payable": false,
			"stateMutability": "view",
			"type": "function"
		},
		{
			"constant": false,
			"inputs": [
				{
					"name": "_count",
					"type": "uint256"
				}
			],
			"name": "setCount",
			"outputs": [],
			"payable": false,
			"stateMutability": "nonpayable",
			"type": "function"
		},
		{
			"constant": false,
			"inputs": [],
			"name": "incrementCount",
			"outputs": [],
			"payable": false,
			"stateMutability": "nonpayable",
			"type": "function"
		},
		{
			"inputs": [
				{
					"name": "_count",
					"type": "uint256"
				}
			],
			"payable": false,
			"stateMutability": "nonpayable",
			"type": "constructor"
		}
	]
}